:1040000000800020519401007D9401007D94010006
:104010007D9401007D9401007D9401007D94010058
:104020007D9401007D9401007D9401007D94010048
:104030007D9401007D9401007D9401007D94010038
:10404000719F0000695900007D9401007D9401007A
:104050007D9401000DD000007D9401009D59000069
:104060007D9401007D9401007D940100752C010078
:10407000C5590000153101007D9401007D940100B7
:104080007D9401007D9401007D9401007D940100E8
:104090007D9401007D940100F13001007D940100C8
:1040A0007D9401007D9401007D9401007D940100C8
:1040B0007D9401007D9401004D5900007D94010024
:1040C0007D9401007D9401007D9401007D940100A8
:1040D0007D9401007D9401007D9401007D94010098
:1040E00010B5054C237833B9044B13B10448AFF332
:1040F00000800123237010BD000900200000000093
:10410000BC10030008B5034B1BB103490348AFF3D0
:10411000008008BD0000000004090020BC1003005E
:10412000A3F5803A704700BF174B002B08BF134B15
:104130009D46FFF7F5FF00218B460F461348144AB2
:10414000121A1AF0A1FD0E4B002B00D098470D4B10
:10415000002B00D098470020002104000D000D48DE
:10416000002802D00C48AFF300801AF043FD200075
:10417000290011F0F7FA1AF05FFC00BF00000800F8
:104180000000000000000000008000200009002066
:10419000444200200000000000000000024A034BDF
:1041A0000121117018807047AE090020AC09002071
:1041B00000B583B00422082011461023009001208E
:1041C00001F0A8FC01F040FC44F63823144844F206
:1041D00068224BF6803103F00DF912484FF47A72E1
:1041E0004BF6803103F03EF8B0EE000A64224BF645
:1041F00080310D4802F04EFE0C4803F013FB0C48D2
:1042000003F010FB0B4802F0B9FE0B4802F0B6FEBB
:104210004BF6803003B05DF804EB01F0E1BB00BF6A
:104220005C0900203409002098090020440900207E
:104230001C090020680900208009002001F0D0BD81
:104240002DE9F04F2DED068B774C784DDFED789A08
:10425000DFED788A9FED789A4FF0000885B0074629
:1042600084F8008085F8008001F052FB82464EF60B
:1042700060208742714B28BF07464BF6803202FB15
:1042800007F7CDE90188A3FB0737BF09C346B84547
:1042900004D10DE02B7803F0FF068BB92378002BB7
:1042A000F8D00026304605B0BDEC068BBDE8F08F97
:1042B00023780026304605B0BDEC068BBDE8F08FB4
:1042C0005F4B1B881BB207EE903AB8EEE70ABAF1D3
:1042D000000F01D0B1EE400A5A495B4803F0C4FA1E
:1042E000B5EEC00AB0EE408AF1EE10FAC8BFB0EEEB
:1042F000480A56495648D8BFB1EE400A03F09AFA28
:10430000B4EEE80AF1EE10FAD8BFB0EE680A88EE13
:1043100000AA504A504B5148D2ED007AFCEEE77AA1
:10432000CDED037A9DF80C9003EB890191ED000A25
:104330004B492AEE000A02F029FEA9F14009464B3A
:10434000474948485FFA89F903EB8909B0EE408A8A
:1043500099ED000A2AEE000A02F018FE68EE007AD3
:10436000B6EE007A67EE877A3A4A79EE677A92ED8E
:10437000007A77EE877AF5EEC09ABCEEE77AF1EE36
:1043800010FA17EE103A23F0FF0307EE103AB8EEDA
:10439000477A77EEC77AC2ED007A04DBB5EEC08AC1
:1043A000F1EE10FA10D4F5EEC09AF1EE10FA06D440
:1043B0000023F0EE489A08F101082B7067E7B5EE8C
:1043C000C08AF1EE10FAF3DBA8EB0B0BABF1B503EF
:1043D000762B0ED96FF4D2708344BBF1760F1ED8C2
:1043E000019B022B0ED001230022CDE90132C346EE
:1043F000DEE7019B012B0FD002230021CDE9013123
:10440000C346D5E701230193029B01330A2B029394
:104410003FF450AFC346CBE702230193F4E70023F8
:104420000293C3460193C3E740090020AE09002070
:10443000000000000000C8420000C042D34D6210DE
:10444000AC0900205C090020440900203409002048
:104450001C090020B0090020500202006809002059
:1044600098090020800900202DE9F04F4EF66026C3
:104470002DED068BB14228BF3146A54AA54CA64D6D
:10448000DFEDA68A9FEDA69ADFEDA69ADFF8C4B20B
:104490004BF6803687B001FB06F60023A2FB06260A
:1044A00023701F468146B6092B7000930393019336
:1044B0009A46B74280F0DB80B9F1000F0FD101E0DE
:1044C0002B7883B92378002BFAD0207880F0010074
:1044D00007B0BDEC068BBDE8F08F2B781BB92378B5
:1044E000002BFAD0F1E7C7F30B00002878D08E4BF1
:1044F0008E481B888E491BB200EE103AB8EEC00AF7
:1045000003F0B2F9B5EEC00AB0EE408AF1EE10FA4F
:10451000C8BFB0EE480A87498748D8BFB1EE400A05
:1045200003F088F9B4EEC90AF1EE10FAD8BFB0EE84
:10453000490A88EE00AA814A814B8248D2ED007A6E
:10454000FCEEE77ACDED027A9DF8088003EB880156
:1045500091ED000A7C492AEE000A02F017FDA8F14D
:104560004008774B784979485FFA88F803EB880868
:10457000B0EE408A98ED000A2AEE000A02F006FD2D
:1045800068EE007AB6EE007A67EE877A6B4A79EECB
:10459000E77A92ED007A77EE877AF5EEC08ABCEE84
:1045A000E77AF1EE10FA17EE103A23F0FF0307EE68
:1045B000103AB8EE477A77EEC77AC2ED007A04DB9C
:1045C000B5EEC08AF1EE10FA12D4F5EEC08AF1EE23
:1045D00010FA08D40023F0EE488A01372B7068E700
:1045E00013F07EFA83E7B5EEC08AF1EE10FAF1DB44
:1045F000009BA7EB0A0A63B3012B64D0023BDBB23A
:10460000012B24D8AAF17903B3F5EF7F66D8BAF568
:10461000B47F0CD9019B03F0010218326A44580898
:1046200012F8041C012383400B4302F8043C6FF48E
:1046300096739A44019BBAF1760F03F1010301933B
:1046400022D8042B00F08880019B0E2B1FD0BA4685
:10465000C0E76FF496708244BAF1770F38BF012338
:104660000093019B38BF00230193BA46B2E7B9F12A
:10467000000F05D0237828E72B78002B7FF433AF89
:104680002378002BF8D020E702230093DCE7304B9F
:104690009DF815209DF814109A5C5B5C43EA0213A8
:1046A000039A0BF80230531C172B039300F054812C
:1046B000022013F015FA0023ADF814300193032300
:1046C000BA46009386E76FF496710AEB0103762BE6
:1046D0000BD8019B01330193BA467BE7032013F00B
:1046E000FFF90023BA46009374E7AAF1B503762BCD
:1046F00005D96FF4D2720AEB0203762B04D8019B22
:10470000053B122B40F22D820023BA46009361E74D
:10471000D34D621040090020AE09002000000000C7
:104720000000C8420000C042AC090020440900203B
:104730005C090020340900201C090020B009002079
:10474000500202006809002098090020800900201A
:10475000D0010200B4090020009B032B40F00C8222
:10476000039B022B7FF673AFDFF82CE4AEF102025D
:10477000991E02EB030841F2210000231EF801CB31
:104780005A0092B21CF0800F18BF01324FEAD333A7
:1047900018BF92B203B1424053009BB21CF0400FCD
:1047A00018BF01334FEAD23218BF9BB202B1434067
:1047B0005A0092B21CF0200F18BF01324FEAD333D7
:1047C00018BF92B203B1424053009BB21CF0100FCD
:1047D00018BF01334FEAD23218BF9BB202B1434037
:1047E0005A0092B21CF0080F18BF01324FEAD333BF
:1047F00018BF92B203B1424053009BB21CF0040FA9
:1048000018BF01334FEAD23218BF9BB202B1434006
:104810005A0092B21CF0020F18BF01324FEAD33394
:1048200018BF92B203B1424053009BB21CF0010F7B
:1048300018BF01334FEAD23218BF9BB202B14340D6
:10484000C6459BD15A0092B2DB0B1CBF82F4815249
:1048500082F0010253009BB2D20B1CBF83F4815340
:1048600083F001035A0092B2DB0B1CBF82F4815229
:1048700082F0010253009BB2D20B1CBF83F4815320
:1048800083F001035A0092B2DB0B1CBF82F4815209
:1048900082F0010253009BB2D20B1CBF83F4815300
:1048A00083F001035A0092B2DB0B1CBF82F48152E9
:1048B00082F0010253009BB2D20B1CBF83F48153E0
:1048C00083F001035A0092B2DB0B1CBF82F48152C9
:1048D00082F0010253009BB2D20B1CBF83F48153C0
:1048E00083F001035A0092B2DB0B1CBF82F48152A9
:1048F00082F0010253009BB2D20B1CBF83F48153A0
:1049000083F001035A0092B2DB0B1CBF82F4815288
:1049100082F0010253009BB2D20B1CBF83F481537F
:1049200083F001035A0092B2DB0B1CBF82F4815268
:1049300082F0010253009BB2D20B1CBF83F481535F
:1049400083F001031BF80100DAB2904200F01881F5
:10495000042013F0C5F8D7E68E48002300F1150EA9
:1049600041F2210C10F8011F5A0092B211F0800F91
:1049700018BF01324FEAD33318BF92B20BB182EAAB
:104980000C0253009BB211F0400F18BF01334FEAE5
:10499000D23218BF9BB20AB183EA0C035A0092B21A
:1049A00011F0200F18BF01324FEAD33318BF92B273
:1049B0000BB182EA0C0253009BB211F0100F18BF2A
:1049C00001334FEAD23218BF9BB20AB183EA0C031B
:1049D0005A0092B211F0080F18BF01324FEAD333D8
:1049E00018BF92B20BB182EA0C0253009BB211F0D5
:1049F000040F18BF01334FEAD23218BF9BB20AB17D
:104A000083EA0C035A0092B211F0020F18BF013270
:104A10004FEAD33318BF92B20BB182EA0C025300B3
:104A20009BB2C90748BF01334FEAD23248BF9BB29D
:104A30000AB183EA0C03864594D15A0092B2DB0B8B
:104A40001CBF82F4815282F0010253009BB2D20B50
:104A50001CBF83F4815383F001035A0092B2DB0B35
:104A60001CBF82F4815282F0010253009BB2D20B30
:104A70001CBF83F4815383F001035A0092B2DB0B15
:104A80001CBF82F4815282F0010253009BB2D20B10
:104A90001CBF83F4815383F001035A0092B2DB0BF5
:104AA0001CBF82F4815282F0010253009BB2D20BF0
:104AB0001CBF83F4815383F001035A0092B2DB0BD5
:104AC0001CBF82F4815282F0010253009BB2D20BD0
:104AD0001CBF83F4815383F001035A0092B2DB0BB5
:104AE0001CBF82F4815282F0010253009BB2D20BB0
:104AF0001CBF83F4815383F001035A0092B2DB0B95
:104B00001CBF82F4815282F0010253009BB2D20B8F
:104B10001CBF83F4815383F001035A0092B2DB0B74
:104B20001CBF82F4815282F0010253009BB2D20B6F
:104B30001CBF83F4815383F001039BF81510DAB294
:104B400091427FF405AF9BF81620B2EB132F7FF450
:104B5000FFAE1521584613F013F80023BA46009310
:104B600038E5012012F0BCFF00230222CDE900232A
:104B7000ADF81430039345E50223BA46009329E5C6
:104B8000039A5A4412F8012CB2EB132F7FF4E0AED3
:104B9000E0E700BFB3090020B4090020014B012267
:104BA0001A70704740090020DB4A002310B51946EF
:104BB000D2F8144118461A4605F0B4FF00231A46ED
:104BC0001846012105F0AEFF00231A4618460221BF
:104BD00005F0A8FF00231A461846032105F0A2FF9E
:104BE00000231A461846042105F09CFF00231A46AC
:104BF0001846052105F096FF00231A46184606219F
:104C000005F090FF00231A461846072105F08AFF99
:104C100000231A461846082105F084FF00231A468F
:104C20001846092105F07EFF00231A461846E4B213
:104C30000A2105F077FF022C4FF0000340F270814B
:104C40001A4618460B2105F06DFF00231A46184638
:104C50000C2105F067FF00231A4618460D2105F0C8
:104C600061FF00231A4618460E2105F05BFF002362
:104C70001A4618460F2105F055FF00231A4619461B
:104C8000012005F04FFF002301211A46084605F0D8
:104C900049FF00231A460221012005F043FF0023AB
:104CA0001A460321012005F03DFF00231A46042186
:104CB000012005F037FF00231A460521012005F0E9
:104CC00031FF00231A460621012005F02BFF0023A7
:104CD0001A460721012005F025FF00231A46082166
:104CE000012005F01FFF00231A460921012005F0CD
:104CF00019FF00231A460A21012005F013FF0023A3
:104D00001A460B21012005F00DFF00231A460C2145
:104D1000012005F007FF00231A461946022005F07E
:104D200001FF00231A460121022005F0FBFE0023AB
:104D30001A460321022005F0F5FE01230422072173
:104D4000022005F0EFFE00231A460821022005F09C
:104D5000E9FE00231A460921022005F0E3FE0023A4
:104D60001A460A21022005F0DDFE00231A460B2117
:104D7000022005F0D7FE00231A461946032005F04D
:104D8000D1FE00231A460121032005F0CBFE0023AB
:104D90001A460221032005F0C5FE002303211A460E
:104DA000084605F0BFFE00231A460421032005F043
:104DB000B9FE00231A460521032005F0B3FE0023A7
:104DC0001A460921032005F0ADFE00231A460A21E8
:104DD000032005F0A7FE00231A460B21032005F04F
:104DE000A1FE00231A460C21032005F09BFE0023A0
:104DF0001A461946042005F095FE00231A460121A3
:104E0000042005F08FFE00231A460221042005F03D
:104E100089FE00231A460321042005F083FE0023A7
:104E200004211A46084605F07DFE00231A46052196
:104E3000042005F077FE00231A460621042005F021
:104E400071FE00231A460721042005F06BFE0023A3
:104E50001A460821042005F065FE00231A460921A0
:104E6000042005F05FFE00231A460A21042005F005
:104E700059FE00231A460B21042005F053FE00239F
:104E80001A460C21042005F04DFE00231A460D2180
:104E9000042005F047FE00231A460E21042005F0E9
:104EA00041FE00231A460F21042005F03BFE00239B
:104EB0001A460321052005F035FE00231A46042179
:104EC000052005F02FFE002305211A46084605F0AF
:104ED00029FE00231A460621052005F023FE0023A3
:104EE0001A460721052005F01DFE00231A46082159
:104EF000052005F017FE00231A460921052005F0BC
:104F000011FE00231A460C21052005F00BFE034B71
:104F10000122C3F82C2110BD0010084000600040A1
:104F2000184604220B2105F0FDFD00231A46184601
:104F30000C2105F0F7FD00231A4618460D2105F057
:104F4000F1FD00231A4618460E2105F0EBFD002363
:104F50001A4618460F2105F0E5FD00231A461946AA
:104F6000012005F0DFFD002301211A46084605F067
:104F7000D9FD00231A460221012005F0D3FD0023AC
:104F80001A460321012005F0CDFD00231A46042115
:104F9000012005F0C7FD00231A460521012005F078
:104FA000C1FD00231A460621012005F0BBFD0023A8
:104FB0001A460921012005F0B5FD00231A460A21F1
:104FC000012005F0AFFD00231A460B21012005F05A
:104FD000A9FD00231A460C21012005F0A3FD0023A2
:104FE0001A461946022005F09DFD00231A460121AC
:104FF000022005F097FD002304220321022005F082
:1050000091FD00231A460721022005F08BFD0023A5
:105010001A460821022005F085FD00231A460921C1
:10502000022005F07FFD00231A460A21022005F028
:1050300079FD00231A460B21022005F073FD0023A1
:105040001A461946032005F06DFD00231A4601217A
:10505000032005F067FD00231A460221032005F016
:1050600061FD002303211A46084605F05BFD00237D
:105070001A460421032005F055FD00231A46052198
:10508000032005F04FFD00231A460921032005F0F7
:1050900049FD00231A460A21032005F043FD0123A0
:1050A00004220B21032005F03DFD012304220C21E5
:1050B000032005F037FD042210460123002105F0EE
:1050C00031FD00231A4601210420013C05F02AFD90
:1050D000012C3FF698AE042201230221104605F070
:1050E00021FD96E670B50C4686B00025064605A95A
:1050F0002046059512F092FC084B1A88059B0095F6
:10510000013ACDE9012530462A46214605F082F8CC
:10511000034809F099FA06B070BD00BF740E002074
:10512000008008400000000000B5714895B00121E2
:1051300004F0A2FB042210460023082105F0F2FC33
:10514000042210460023092105F0ECFC042210463D
:1051500000230A2105F0E6FC0422104600230B215F
:1051600005F0E0FC0422104600230C2105F0DAFCD7
:105170000422104600230D2105F0D4FC0422104621
:1051800000230E2105F0CEFC0422104600230F213F
:1051900005F0C8FC0023184604220F2105F0C2FCCC
:1051A000002319461846042205F0BCFC00231846CB
:1051B0000422012105F0B6FC002318460422022136
:1051C00005F0B0FC002318460422032105F0AAFCD8
:1051D000002304221146184605F0A4FC00231846BB
:1051E0000422052105F09EFC002318460422062116
:1051F00005F098FC042210460023012105F092FCE2
:10520000002304220921022005F08CFC0023042243
:105210000A21022005F086FC0422114610460023D4
:1052200005F080FC042210460023052105F07AFCDD
:10523000042210460023062105F074FC04221046C7
:105240000023072105F06EFC002304220821022020
:1052500005F068FC002319460422012005F062FCD9
:10526000012108460023042205F05CFC00230422EF
:105270000921032005F056FC002304220A21032003
:1052800005F050FC002304220921052005F04AFC0A
:10529000002304220821052005F044FC50220021AF
:1052A000684619F0F1FC9FED0E7B8DED107B9FEDB4
:1052B0000E7B022101230622039168464FF08051A4
:1052C0008DED087B8DF84C3004928DF82E300A93CA
:1052D0000D92129105F012F815B05DF804FB00BFB5
:1052E0000000010000004800020000000300000070
:1052F0000053020008B50449044B4022012006F087
:105300003DFA002008BD00BF780E00207163000048
:1053100008B50449044B4022022006F02FFA002071
:1053200008BD00BF780E002091630000027838B5F8
:1053300012F06005044605D14378062B19D06FF0B2
:10534000020038BD6FF00200C02AFAD16378012B49
:1053500023D0022BF5D1A388072BF2D1E288224972
:105360000023B22A28BFB222184606F017FB0020FD
:1053700038BD43881B0A212B1ED0222B28D00F2B8F
:10538000DDD1C2881949392A28BF39222B4628463F
:1053900006F004FB22782846D6E7A388022BD0D15A
:1053A000E288134900231B2A184628BF1B2206F057
:1053B000F5FA63780020CCE7C2880E49092A28BF95
:1053C00009222B46284606F0E9FA22782846BBE750
:1053D000C28809491C2A28BF1C222B46284606F0F1
:1053E000DDFA22782846AFE76407020000070200D2
:1053F000180802003C07020048070200052910B502
:1054000002D005280ED010BD0A4B0B4940220120C6
:1054100006F0B4F9BDE81040084B074940220220CD
:1054200006F0ACB9012005F0E5FFBDE81040022010
:1054300005F0E0BF71630000780E0020916300006A
:105440002DE9F0412A4E2B4D84B0044601212A4813
:1054500004F012FA00270A2369463046CDE90077A6
:1054600002978DF802308DF80C7005F011FEF3688C
:10547000224A43F00103F3604FF48053C2F88031B5
:105480004FF001081360112085F8008004F056FAEF
:10549000B4F57A7F28BF4FF47A74830A04FB03F3D0
:1054A000174C03F5FA73A4FB03239B09F36177629E
:1054B000C6F804802B7843B1124A136923F0040321
:1054C000136130BF2B78002BF7D109480B4AC36812
:1054D0004FF4805123F00103C360C2F8801005F03F
:1054E00039FE0548002104F0C7F904B0BDE8F08199
:1054F00000040140E00900200062040000E100E037
:10550000D34D621000ED00E0364B2DE9F04FD3F89B
:105510001431DBB2022B87B007461AD8324B334D19
:1055200008229A650FCD6C460FC495E80300062645
:1055300084E803002E48ADF80A60012104F09CF9CC
:105540002C48694603F0ACFD2A4800220A2103F0EA
:105550009FFD294DDFF88CA0264C4FEA57081A26EC
:10556000DAF81431DBB2022B5FFA86F917D821483A
:1055700003F082FD63681F4808EB550BBBFBF7FB8C
:10558000BBF13F0F28BF4FF03F0B23F47C5343EA9E
:105590000B23636003F076FDA368DA07FCD5DAF825
:1055A0001431DBB2022B02D8A3689B0706D4A5F501
:1055B000C455013EA5F11C05D2D1B146094BD3F823
:1055C0001431DBB2022B09D80A4803F055FD084814
:1055D000002104F051F9044B0822DA65484607B06F
:1055E000BDE8F08F00100840006000405006020047
:1055F00000920400001000402AC204002DE9F04788
:105600008AB014F059FA01221146022004F07CFC01
:105610000121112003F096FF0421112004F0E6FA85
:1056200000221146032004F06FFCA448012104F07D
:1056300023F90121A24804F01FF905F05FFC05469B
:1056400005F03AFC15F4807454D09E4B9A6AD20748
:1056500048D49C4B0022C3F8102105AE15F010056C
:10566000984B1ABF984AC3F80C21C3F80C51FFF7A6
:105670009BFA002301220621022005F053FA0023A1
:1056800001220821032005F04DFA012406221146CB
:105690002346CDE90044022005F008FA08222346FB
:1056A0001146CDE90044032005F000FA874A0221A3
:1056B000C2F880111160864A07CA334603C340F21C
:1056C00001151A7031460D238248ADF816508DF839
:1056D0001C3008F0C5FF7F4821460AB0BDE8F047FE
:1056E00008F098BFD3F8042101210A44C3F804212B
:1056F0001963AEE7784F7948012104F0BDF805AE93
:105700004FF0F85303A938460393ADF8104003F067
:10571000F5FC0523059431467460347238468DF8E3
:10572000183040F20523ADF8153003F01FFD0123BA
:105730007B60BC6814F00104FBD17F6A664803F00B
:10574000A9FD6648214604F097F8FF2F7BD8002278
:105750001146012004F0D8FB00221146104604F047
:10576000D3FB002304220721012005F0DBF964208C
:10577000FFF766FE012318460422072105F0D2F93F
:105780000A20FFF75DFE564A0023D2F81C78072155
:105790001A46012005F0C6F927B9524A136843F4A6
:1057A000805313600122504FDFF8448111460020DE
:1057B00004F0AAFB97E8030008234FF001094FF01B
:1057C000000A05908DF818108DF816308DF8149099
:1057D0003046C8F8C0A505F051F95146022005F041
:1057E0005BFB0837C8F8C095B4464FF003084FF488
:1057F000005E0FCFACE80F003B68CCF8003000270C
:105800002023304607938DF81580ADF818E08DF809
:1058100024708DF8147003F09BFD2A4B01221A634B
:105820005A6B42F001025A631A68304AD760264A1E
:10583000C3F81441C3F80871C3F80071C3F80471C8
:10584000C3F810210AE7B7F5007F34D3B7F5407FDE
:1058500001D202247BE722462146204604F054FB75
:10586000012211461046204FDFF8848004F04CFBE3
:105870004FF47A70FFF7E4FD97E8030004234FF03C
:10588000010905908DF818108DF816308DF81490D8
:105890003046C8F8C04505F0F1F82146022005F071
:1058A000FBFAC8F8C0954FF003080837B4464446E1
:1058B0004FF4805E9DE7012449E700BF00D2040059
:1058C00000430200001008404433221100E100E0D0
:1058D000840602000080084000200040000205000D
:1058E00000000C4200800C406806020000000243E9
:1058F00000008C43044A054BD2F81001C01AB0FADC
:1059000080F04009704700BF001008404433221166
:10591000044BD3F81401C0B2022894BF0020012028
:10592000704700BF00100840112004F007B800BF06
:10593000022806D001280CBF02210121112003F00A
:1059400001BE0421112003F0FDBD00BF044A13690C
:1059500093619B0700D47047024808F075BE00BFF2
:1059600000000840008008400B4B10B5D3F81441EC
:10597000C3F81C4114F4A07F04D144F201031C427B
:1059800006D110BD12F03CF844F201031C42F8D0DD
:10599000BDE8104012F02EB80060004008B5074B7B
:1059A0009A691A62D20700D408BD586A00B2FEF79D
:1059B000F5FBBDE80840024808F046BE0020004064
:1059C00000800840044A13699361DB0702D5034B4A
:1059D00000221A70704700BF00040140E009002057
:1059E00070B5154E154C84B005460121144803F0DE
:1059F00043FF3046012103F03FFF002301221846F8
:105A00004FF4F01105F038FA002369462046CDE93D
:105A1000003302938DF80C3005F03AFB304603F06A
:105A20008DFF084AB0FBF5F001230138E0616360A7
:105A3000536004B070BD00BF007204000008014054
:105A400000F20400002000400548064A4369802116
:105A500043F001034361C2F880111160704700BF39
:105A60000020004000E100E0F0B5B2F5806F224D6B
:105A70008DB088BF4FF4806306460F461F4898BF1D
:105A80002A804FF001014FF0000488BF2B8003F003
:105A9000F3FE1B4B089307A88DF81C4004F072FB23
:105AA000184B194A0B935C601A604FF4807309A974
:105AB0002046ADF824304FF400230A9304F016FB7F
:105AC000124B059305AA204601218DF8184004F0D9
:105AD00039FB05AA2146204604F034FB2D880C4BE7
:105AE000013DCDE90235CDE9005732462146204639
:105AF00004F07EFA0DB0F0BD740E00200003020029
:105B000000210020D0090020E55000000103010021
:105B1000242000402DE9F04F1F46A44BD3F8143148
:105B2000DBB215465A1E012A97B081460E4640F256
:105B30000681022B00F2A4809D4B0122C3F8A42011
:105B40004FF000089A4B4FF400621A61974B994846
:105B5000D3F814415FFA84FB974C012103F08CFECB
:105B60000FCC0DF1080AAAE80F000FCCAAE80F002D
:105B700094E8030004F1080E8AE80300BEE80F0071
:105B80000DF1300CACE80F00BEE80F00ACE80F00E0
:105B90009EE80300BBF1020F8CE8030069D84FF4C4
:105BA00000431093854B8649864AB9F1000F08BF20
:105BB0001A46854B08BF0B46042E28BF0426012138
:105BC00052F8262053F8263004924FF0402002AAC3
:105BD0000E9305F031F80CAA02214FF0402005F099
:105BE0002BF87448002103F047FE704B7748D3F838
:105BF0001461012103F040FE802D28BF8025012D76
:105C000038BF01250024724B0293013D20468DF8D8
:105C10000C508DF80D4003F07DFB209A8DF80B00A1
:105C20000223802AF6B28DF8093075D0402A40D080
:105C3000202A00F0AB80102A00F0A080082A00F093
:105C4000AE80042A00F0AA80624D8DF8084002A9B7
:105C5000284603F053FA4FF480332B610123CDE93A
:105C60000C448DF83230209B8DF83840012B36D013
:105C700032E04FF4000303934FF48023069391E73F
:105C8000002319460122032004F04CFF01240022C6
:105C90002346CDE900441146032004F007FF4E4B94
:105CA000D3F80031002B7DD1414B8022A046DA652C
:105CB0004CE705238DF80830464C02A9204603F036
:105CC0001DFA00234FF480322261CDE90C338DF8A8
:105CD000383001238DF8323003238DF83330022E13
:105CE00084BF02238DF8343040F20113102FADF839
:105CF00035300DD0082F3DD0042F4BD0022F41D08E
:105D000034480CA903F032FA404617B0BDE8F08FD2
:105D100004238DF83130F3E72E4D062302A92846DF
:105D20008DF8083003F0EAF94FF480332B6101233A
:105D3000CDE90C448DF838408DF83230CCE70023A3
:105D4000184601220E2104F0EDFE01240E22234606
:105D5000CDE900441146002004F0A8FE1F4BD3F803
:105D6000B833002B7FF4E8AE114B0422A046C3F8F1
:105D7000A420E7E603238DF83130C1E703238DF833
:105D8000083099E701238DF83130B9E704238DF805
:105D9000083091E702238DF83130B1E701238DF807
:105DA000083089E74FF00008D0E600BF0010084037
:105DB0000060004000120500900602000000002074
:105DC00028000020140000203C00002000020500F4
:105DD0000000031F0020004000100C4200000C4295
:105DE00030B52949294B2A4AD3F814414B698025FB
:105DF00023F001034B6183B0C2F88051E4B2C2F8D2
:105E0000805004F047FA022C19D80123214D013C9F
:105E10009C42C5F8A03024D91E4B4FF400625A6151
:105E20001D48002103F028FD1C48002103F024FD3B
:105E30001B48002103B0BDE8304003F01DBD002425
:105E40000123CDE9003422462146032004F02EFE32
:105E5000234622462146032004F064FE0D4B9D6537
:105E6000DEE700240E221146CDE90034204604F07E
:105E70001DFE234622460E21204604F053FE042335
:105E8000C5F8A030C8E700BF00200040001008405F
:105E900000E100E000600040001205000002050083
:105EA0000003020008B5084BD3F81431DBB2022B13
:105EB00001D9002008BD054B4FF40062C3F88020D3
:105EC000FFF732F9012008BD0010084000600040D3
:105ED00000B97047FFF7B4BA034A136923F004030B
:105EE000136130BF704700BF00ED00E0012004F0F7
:105EF0003BBD00BF38B5104D0446FEF755FE0F48B8
:105F0000002108F087FB0E4A0221A302296303F552
:105F1000FA73A968A2FB03239B09402B2CBFC91865
:105F20004031002003F054FA6B6B43F002036B63C3
:105F300004F08CFDFEE700BF001008400080084020
:105F4000D34D621010B50E4C0FCC88B00DF1040C7F
:105F5000ACE80F0094E8070000238CE80700062255
:105F6000012108488DF804308DF814308DF80E208A
:105F700003F082FC01A808F0D7FA08B010BD00BFFA
:105F8000E006020000E204004FF08042034813687C
:105F900023F001030021136003F06EBC00E2040053
:105FA0004FF080420D4B116821F0010111605168E2
:105FB000A0F27260A3FB00035B0921F03F013F2BBD
:105FC00094BF194341F03F015160136843F001034E
:105FD00013609368DB07FCD5704700BFF1F0F0F069
:105FE0004FF080439868C0F34000704730B5224DB1
:105FF0000FCD89B001AC0FC495E80700002384E8F9
:106000000700062201211D488DF80E208DF804306E
:106010008DF8143003F030FC01A808F085FA3F2118
:106020004FF08042136823F001031360536823F09C
:106030003F030B435360136843F0010313609368FD
:10604000D807FCD593689B0704D40139EAD140F204
:10605000946404E001EB01114C0004F294644FF0ED
:1060600080420648136823F001030021136003F007
:1060700003FC204609B030BDE006020000E2040047
:1060800070B5A94EA94C357882B040220021204637
:1060900018F0FAFD6B1E25700B2B09D8DFE803F012
:1060A0001F3560677DB0B98506A1A60A012363701C
:1060B00002B070BD9E4BD3F81431DBB2022BF7D87F
:1060C000737863705A1E072AF2D8DFE812F0F100E5
:1060D000DC0014010501C800C800F900F40094496F
:1060E000D1F80451D1F8003188688A6A12F00102AF
:1060F00040F0A2801B1842EB02019B189B0A4A1930
:1061000043EA8253C4F80130D2E7D6F80120884B25
:10611000C4F8012098689102081A4FEA925262F17D
:106120000004C3F80441834CC3F80001C3F80841DC
:10613000986AC00710D5D3F804010130C3F80401F0
:106140009868091A62F100020120C3F80421C3F81B
:106150000011C3F808411863774BC8221A60A7E7FB
:10616000764B774A03CBC4F801005160A0E7FFF7F4
:106170003DFF6F4AD2F81431DBB2022B59D8D2F866
:106180001431DBB2022B54D8FFF7BEF90B2850D9DB
:10619000A0F10B03DBB263708AE76449402205205B
:1061A00002B0BDE8704011F097BC002301A8019334
:1061B00011F08CFC019B002B3FF47AAF604A1D6804
:1061C00058689968DE68C4F8015050609160D660E4
:1061D0001D6958699969DE69D661156150619161DF
:1061E00066E7584A01231370637061E7504BD3F898
:1061F0001431DBB2022B8CBF00230123637057E7FD
:106200004A4A49494023062002B0BDE8704011F0D7
:1062100065BC002301A8019311F052FC019B002BE7
:106220003FF446AF46491A889B788B70A4F801204A
:106230003EE7002363703BE7D1F804310133C1F836
:106240000431D1F80401D1F800218B68D31840F152
:1062500000029B0A012043EA8253086352E73A494D
:106260000A7802F0FF00002A7FF422AF052B374A9C
:10627000374D0CBF4FF000444FF480440123287089
:1062800014600B7014E72A4BD3F81431DBB2022BE5
:106290003FF60EAF2F4B4FF40062C3F88020FEF79D
:1062A00043FF4FF47032FF214FF0004018F0ECFC38
:1062B0000123A370FCE6284A01231370A370F7E6BC
:1062C000234B1A781B78A270002B3FF4F1AE234BBE
:1062D0001B88A4F80330EBE6D6F80200B2798318E5
:1062E000B3F5703F18D31E491E48053202B0BDE811
:1062F000704018F0BBBC19F063FF1B484FF07E6381
:10630000012213F8011B002914BF002202F0010230
:106310008342F6D1A270CBE6144900F1004018F098
:10632000A5FCB279DFE700BF780E0020FC0E00204C
:1063300000100840443322117C0F0020F081E00F50
:10634000FD0E0020E1090020F80E0020700E002054
:10635000DC09002000600040F90E0020DE0900206A
:106360007A0E0020FE0E00200008E00F7F0E0020B5
:1063700008B5FFF785FE044B04494022812005F053
:106380000DFB002008BD00BFF5520000FC0E0020F0
:1063900008B5FFF775FE044B04494022822005F042
:1063A000FDFA002008BD00BF11530000FC0E0020C4
:1063B000044BD3F81431DBB2022B01D8FFF7A4B899
:1063C00000207047001008400A4A08B5D2F814317E
:1063D000DBB2022B0BD8D2F81431DBB2022B06D879
:1063E000FFF792F80B2802D90B38C0B208BD002085
:1063F00008BD00BF0010084030B5012187B000245F
:106400001448154D03F038FA144B01932046ADF8AB
:10641000084002F07FFF2146034611488DF80730FF
:1064200002F01AFF01A9034628468DF8083002F051
:1064300065FE05220823284603A9CDE903448DF80B
:1064400014408DF80D208DF8103002F08FFE07B04B
:1064500030BD00BF00020500002000400300001F07
:10646000801A060008B5044802F014FFBDE8084091
:106470000248002103F000BA00200040000205009D
:10648000134A012310B453609368DB07FCD4114C0A
:10649000536AD4F8B010C1F30741FF2916D0D4F8DD
:1064A000BC0042F21072C3EB105302FB03F30A4824
:1064B0001F3380FB0320C218D817C0EB62104FF4C3
:1064C0007A7303FB01005DF8044B70470348FAE759
:1064D000002000400081E00F832008826079FEFFE9
:1064E0000C4B0D4AD3F81431D2F8982C7AB1DBB2A8
:1064F000012B0A4BD3F8203104D9012B14BF022001
:1065000000207047012B14BF00200220704701209B
:10651000704700BF0010084000000C4200100C4201
:10652000044A054BD2F80801C01AB0FA80F04009BD
:10653000704700BF001008404433221110B4890294
:10654000164C174A01F5FA73A4FB03139B099468D0
:1065500000214FF4806CE0FB0C311C1B61F100004A
:10656000C2F804010F48C2F80041C2F80801946A59
:10657000E40710D5D2F804410134C2F8044194680C
:106580001B1B61F100010124C2F80411C2F80031A3
:10659000C2F8080114635DF8044B7047D34D6210D4
:1065A0000010084044332211244A10B4D2F80441A8
:1065B000D2F8003192689A184FF0000343EB030CB5
:1065C00064449B1818B19A0A42EA8452026049B1A5
:1065D000C3F309034FF47A7202FB03F303F500736C
:1065E0009B0A0B60154A936ADB0723D5D2F8043166
:1065F0000133C2F80431D2F80441D2F80031926874
:106600009A184FF0000343EB030C64449B1818B135
:106610009A0A42EA8452026049B1C3F309034FF473
:106620007A7202FB03F303F500739B0A0B60034BC2
:1066300001221A635DF8044B704700BF0010084048
:1066400000B970471B4B10B5D3F814313C28DBB2AE
:1066500028BF3C20022B82B04FEAC03423D9164811
:10666000032103F0C3FA1548012103F005F9144B87
:10667000D3F8AC30ADF804301A0C214600208DF868
:10668000062004F0C9FC0F480F4AC3694FF080414F
:1066900043F00203C361C2F8801101A8116004F045
:1066A000C7FC02B010BD01221146104603F02CFCBD
:1066B000D5E700BF0010084002001A006016100065
:1066C000500602000000084000E100E0054B9A6A15
:1066D000D20706D5D3F8042101210A44C3F80421C6
:1066E000196370470010084010B58EB000230DF1FB
:1066F00007010DF106008DF806308DF8073010F017
:10670000F5FE2649D1F80401D1F800218C688B6A86
:1067100013F001032FD1121943EB03019B18084416
:106720009B0A43EA80539DF907209DF90610C2EBAE
:1067300002124FF46160920000FB0122134405A98C
:10674000002202A8CDE9023218F0A8F9DDE906031B
:10675000089C05990A9ADB0243EA044343EA401382
:10676000099843EA5103D03A43EA4263013043EACD
:1067700040500EB010BDD1F8043101242344C1F8BB
:106780000431D1F80401D1F800218B680C63D318CF
:1067900040F100029B0A43EA8253C4E7001008401C
:1067A000042203461146022004F0BCB900B50422BD
:1067B00083B0034611460220019304F0B3F9019B14
:1067C00004220521022003B05DF804EB04F0AAB90D
:1067D0002DE9F04F002383B002220B21052004F0A5
:1067E000A1F95D4BD3F81431DBB2022B40F2668283
:1067F0005A485B4D5B4FDFF88C81574C5A4E032152
:1068000003F0F4F95948012103F036F8584BD3F856
:10681000AC30ADF804301A0C4FF4A02100208DF8F4
:10682000062004F0F9FB5348534AC3694FF08041F6
:1068300043F00203C361C2F8801101A8116004F0A3
:10684000F7FB4E4804F04CFE00232B604C4AD4F872
:106850001431D2F8982C32B1DBB2012BD6F82031AA
:1068600033D9012B33D16420FEF7EAFD04F0B4FDE7
:1068700005F05EF804F01EFE3E4A374BD3F8144193
:10688000D36923F00203D3613B4B4FF08042C3F83E
:10689000802004F0DBFBE4B23448002102F0ECFF7E
:1068A000022C40F2058200231A460B21052004F039
:1068B00039F93B78002B40F0DE8198F80030002B4E
:1068C00040F0028203B0BDE8F08F012BCBD13B78C2
:1068D000002BC8D198F80030002BC4D1D6F82C3A40
:1068E00033B12B68002B00F0BF810120FEF7A8FD1B
:1068F0002B6813B12B68013B2B60DFF88C9099F863
:106900000030002B42D1A36A13F0010316D0D4F853
:1069100004314FF0010C6344C4F804310422002315
:1069200005210220C4F830C004F0FCF804F0E2FFB6
:1069300000288BD0012004F017F887E704220521F6
:10694000022004F0EFF804F0D5FF00283FF47EAFFA
:10695000012004F009F879E70010084002001A004D
:106960007C0F0020E109002000100C42601610008E
:10697000500602000000084000E100E0FC080200B0
:1069800000000C42F90E0020F80E0020B34AB44B70
:10699000106800221A8000F5703E41F2210C90F838
:1069A00000B0B3F800A01FFA8AF2520092B21BF0B6
:1069B000800F18BF0132CAF3C03A5FFA8BF118BFDB
:1069C00092B2BAF1000F01D082EA0C021A80B3F839
:1069D00000A01FFA8AF2520092B211F0400F18BFC5
:1069E0000132CAF3C03A18BF92B2BAF1000F01D017
:1069F00082EA0C021A80B3F800A01FFA8AF2520051
:106A000092B211F0200F18BF0132CAF3C03A18BF7A
:106A100092B2BAF1000F01D082EA0C021A80B3F8E8
:106A200000A01FFA8AF2520092B211F0100F18BFA4
:106A30000132CAF3C03A18BF92B2BAF1000F01D0C6
:106A400082EA0C021A80B3F800A01FFA8AF2520000
:106A500092B211F0080F18BF0132CAF3C03A18BF42
:106A600092B2BAF1000F01D082EA0C021A80B3F898
:106A700000A01FFA8AF2520092B211F0040F18BF60
:106A80000132CAF3C03A18BF92B2BAF1000F01D076
:106A900082EA0C021A80B3F800A01FFA8AF25200B0
:106AA00092B211F0020F18BF0132CAF3C03A18BFF8
:106AB00092B2BAF1000F01D082EA0C021A80B3F848
:106AC00000A01FFA8AF2520092B2C90748BF0132F1
:106AD000CAF3C03A48BF92B2BAF1000F01D082EABD
:106AE0000C02013086451A807FF459AF198889B2AB
:106AF0004A0092B2C90B1CBF82F4815282F001029B
:106B00001A80198889B24A0092B2C90B1CBF82F45C
:106B1000815282F001021A80198889B24A0092B229
:106B2000C90B1CBF82F4815282F001021A801988BD
:106B300089B24A0092B2C90B1CBF82F4815282F022
:106B400001021A80198889B24A0092B2C90B1CBF8F
:106B500082F4815282F001021A80198889B24A00B7
:106B600092B2C90B1CBF82F4815282F001021A80DA
:106B7000198889B24A0092B2C90B1CBF82F48152B3
:106B800082F001021A80198889B24A0092B2C90BB8
:106B90001CBF82F4815282F001021A80198889B2E6
:106BA0004A0092B2C90B1CBF82F4815282F00102EA
:106BB0001A80198889B24A0092B2C90B1CBF82F4AC
:106BC000815282F001021A80198889B24A0092B279
:106BD000C90B1CBF82F4815282F001021A8019880D
:106BE00089B24A0092B2C90B1CBF82F4815282F072
:106BF00001021A80198889B24A0092B2C90B1CBFDF
:106C000082F4815282F001021A80198889B24A0006
:106C100092B2C90B1CBF82F4815282F001021A8029
:106C2000198889B24A0092B2C90B1CBF82F4815202
:106C300082F001021A80198889B24A0092B2C90B07
:106C400018BF82F48152074918BF82F001021A80EE
:106C500001200023087089F8003054E6700E0020EF
:106C6000DE090020DC090020012304220521022086
:106C700003F058FF39E61748002107F0CBFC16480F
:106C8000D0F8201121F00101C0F8201101230422C5
:106C90000021052003F046FF4FF000000F49086077
:106CA000016881F3088881F3098841688F4604E60A
:106CB00000221146012003F027F9F4E501221146D4
:106CC000104603F021F993E50120FFF76FFD19F05D
:106CD0007BFA00BF008008400060004008ED00E043
:106CE000034604220521022003F01CBF08B5134B04
:106CF000D3F81431DBB2022B1AD8114B4FF4805267
:106D00000128C3F8802015D010F0BEFF002001F04C
:106D10005BFF431EDBB2012B0AD9042808D00949C6
:106D2000094801220AF028FDB0FA80F0400908BDA8
:106D3000002008BD10F0F6FFE6E700BF0010084095
:106D40000060004060F70200E4090020014608B539
:106D50000B2203480AF044FDB0FA80F0400908BD58
:106D6000200C002038B50B4D0146132228460AF0AE
:106D700037FD08B1002038BD0446D5E90423284674
:106D80000BF08AF908B9012038BD28460BF06AF9E2
:106D9000204638BD200C002008B5024600230348D9
:106DA0000BF07AF9B0FA80F0400908BD200C002001
:106DB00038B5084D0C462B460146224606480AF0D7
:106DC00093FE28B92868001BB0FA80F0400938BD4E
:106DD000002038BDCC090020200C002008B50BF0A5
:106DE000DBFBB0FA80F0400908BD00BF08B50348DE
:106DF0000AF0E0FFB0FA80F0400908BD200C002046
:106E000008B503480BF02EF9B0FA80F0400908BD30
:106E1000200C002008B500210BF0A0FAB0FA80F099
:106E2000400908BD08B50BF0BBFAB0FA80F0400984
:106E300008BD00BF101E2BDD01EB000C4FF06043BE
:106E4000D3F8802ED20701F101011ED5D3F8002E10
:106E5000D2071AD500B51A6811F801EC1AB900BFAB
:106E60001A68002AFBD083F800E061450BD0D3F804
:106E7000802ED20701F10101F7D5D3F8002ED207F9
:106E8000E9D46145F3D15DF804FB6145D8D1704781
:106E9000704700BF07EE902A9FED347AF8EE677ACC
:106EA00010B567EE877A07EE101AB8EE477A2DED27
:106EB000068B87EE879A0446F0EE408AB0EE490AC8
:106EC00013F082F8DFED2A7AB0EE408A28EEA70AA6
:106ED000F7EE009A20EE090A80EE080A13F0BEF9D8
:106EE000F0EE407AB0EE490A28EE278A13F00EF849
:106EF00019EE100AF0EE408A16F0D0FD41EC100BAE
:106F000012F0B2FF39EEE8AA53EC102BF6EE007A3D
:106F1000B8EE000A38EE299A68EE808A6AEE277A7F
:106F200039EEC88A87EE897A12490020CAEE097ABA
:106F300088EE896AC8EE096AC4ED017A84ED036AB5
:106F4000C4ED046A84ED007A16F048FC0A4B002276
:106F500016F0FCFD17F0D2F807EE900AC7EE897A1A
:106F6000BDEC068BC4ED027A10BD00BFDB0FC9403B
:106F70001872B13E0000F03F0000E03F00230360C4
:106F8000C36043600361836043617047D1ED007A61
:106F900090ED025A91ED026A90ED014AD1ED036A3B
:106FA000D0ED055AD0ED044AB0EE407A91ED010AD9
:106FB00067EE277A25EE000A24EE066A77EE807ADD
:106FC00065EEA66A91ED040A80ED004A77EE867AB6
:106FD00024EE800A77EEE67AC0ED034A37EEC00A67
:106FE00080ED015AC0ED045A80ED027A80ED050A69
:106FF000704700BF38B56E4BD3F808C0DA68D3F8D5
:1070000000E05B68C1F800E04B60C1F808C0CA60EE
:10701000C1F810C04A612DED0A8B90ED01AA90EDE8
:10702000008ADFED649AF1EE48AA6AEE698A28EEDA
:10703000698A0C4638EE680A38EE889A0546B4EE3E
:10704000490AF1EE10FAF1EE4ABA6BD630EE29BADF
:1070500039EE299A81ED04BA81ED059A7AEEE88A33
:1070600038EE4A8AB7EE001A70EE019AB4EE688ADA
:10707000F1EE10FAC4ED029A84ED039A80F18A8051
:1070800084ED018AC4ED008A95ED02AAD5ED03AA2C
:107090006AEE49BA2AEEC9CA2AEE4B7A6AEECB7A70
:1070A00037EE4C7A77EEAB7AB1EE4AAAF4EE477A35
:1070B000F1EE10FAF1EE6AAA5DD629EE8A0A69EEBF
:1070C000AA0A30EE4C0A70EEAB0A39EE877A77EEF8
:1070D000897AB4EE600AF1EE10FA84ED047AC4ED18
:1070E000057A3DD628EE8A6A28EE2A5A68EE0A6AA0
:1070F00068EEAA5A38EE807A78EE207A36EE450AA3
:1071000076EEA50A84ED027AB4EE600AF1EE10FA8A
:10711000C4ED037A19D6BDEC0A8B84ED000AC4EDE8
:10712000010A38BDF0EE691AB0EE691AF0EE6B0A8A
:10713000B0EE6A0A17F09AF830EEA99A30EE29BA42
:1071400084ED059A84ED04BA88E7F0EE481AB0EEB3
:10715000681AF0EE6A0AB0EE4A0A17F087F8DAE722
:10716000F0EE491AB0EE691AF0EE6A0AB0EE4A0A79
:1071700017F07CF8B6E7F0EE491AB0EE4B1AF0EED5
:107180006A0AB0EE4A0A17F071F8B0EE407AF0EEF3
:10719000607A92E7DFED071AF0EE6B0AB0EE6A0A4A
:1071A00017F064F8F0EE408AB0EE608A68E700BF3E
:1071B0002C09020000000000284BDFED291A5A6854
:1071C0004A6010B5D3F800C09A68DB68C1F800C007
:1071D0008A60CB602DED068B90ED019A90ED008AD0
:1071E00069EE618AF1EE489A28EE618A0C4638EE23
:1071F000680A78EE880AB1EE49AAF4EE400AF1EE88
:1072000010FA1BD6DFED161AB7EE001A30EE017A2F
:1072100070EEA17A39EEE80A78EE490A84ED027A36
:10722000F4EE400AF1EE10FAC4ED037A0FD6BDEC8D
:10723000068B84ED000AC4ED010A10BDB0EE611AA0
:10724000F0EE4A0AB0EE690A17F010F8DAE7F0EE4D
:107250004A0AB0EE690A17F009F8E8E72C090200BB
:107260000000000007EE902AB8EE677A07EE901A49
:10727000F8EE677AF0B587EE270A0646544D554F6B
:10728000554C2DED048B9FED558ADFED558A83B06B
:1072900020EE080A12F0D2FEC0EE087A514B9FEDA4
:1072A000527A67EE877AB0EE000A67EEA80AB1EE6E
:1072B000677A37EE801A83ED007A30EE670AF1EED6
:1072C000601AC3ED010A17F031F9484B48481A69B2
:1072D0005B6902604360294687ED000AC7ED010A39
:1072E000FFF76AFF21463846FFF766FF94ED009AE4
:1072F00094ED028A95ED020AD5ED030AC9EE086AFB
:1073000030EE280A70EEA80A20EE287A60EEA87AFD
:1073100037EE207A70EE677AF1EE666AF4EE477A1D
:10732000F1EE10FAC6ED016A34D6DFED2D1AD4ED78
:10733000030AD5ED005A95ED016A38EE218A70EE08
:10734000A10A68EE216A20EEA11A76EEA06A38EE54
:10735000411A77EEA57AF4EE416AF1EE10FA37EEB3
:10736000067A22D6D4ED011A39EE011A76EEA11A68
:10737000F0EE470AB0EE670A17F0D8F812F0E8FE10
:10738000B7EE007AC7EE007AC6ED007A03B0BDEC26
:10739000048BF0BDF0EE681AB7EE001A16F066FF27
:1073A000F0EE407AB0EE607ABFE7B7EE001AB0EECA
:1073B000480ACDED017A8DED007A16F057FFDDED2C
:1073C000017A9DED007AB0EE401AF0EE606AC9E7EE
:1073D000A80F0020C00F0020800F0020DB0F4940C5
:1073E00000000000980F0020DB0FC9402C090200AC
:1073F000D00F002070B507EE901A07EE102AF8EEB5
:10740000677AB8EE477A2DED0A8B87EE279A064603
:1074100007EE103AB8EE477ADFEDE78A87EE27BA33
:1074200029EE280A12F00AFEF0EE409A2BEE280A06
:1074300012F004FE89EEA88AC0EE287A9FEDDF7A6A
:1074400068EE078A27EE878A68EE887AF5EE407A3A
:10745000F1EE10FA00F17081B1EEE70A38EE688AB9
:10746000F6EE007A28EE278ADFEDD50A68EE20BA1C
:10747000B1EE48CAB0EE4C1AF0EE6B1A17F056F89F
:1074800060EE007A20EEA07A60EE808A77EEC77A0E
:1074900078EEA88AB0EE401AF4EE687AF1EE10FAAF
:1074A000F0EE601A80F1B681F7EE009A79EEE77A95
:1074B00017EE900A16F0F2FAF1EE687A02460B46E1
:1074C00017EE900A43EC1A2B16F0E8FAB0EE4A0ACF
:1074D000F0EE6A0A41EC110B12F006FB51EC100BB6
:1074E00055EC114B16F00AFE2946034620460CEED9
:1074F000903A16F003FE7CEEA99A08EE900A2CEE64
:1075000029AA2BEEA87A6BEEA9AA6CEE287A3AEE9D
:1075100047AA7AEEA7AAB4EE6AAAF1EE10FA80F1B1
:107520006A81B7EE001A31EE6C1A28EEEB7A28EE7B
:10753000288A6CEE019A6BEE817A79EEC79A37EE63
:10754000888AA04CF4EE489AF1EE10FA84ED00AA75
:10755000C4ED01AAF1EE688A80F14081F0EE008A64
:1075600038EECA1A3AEE280AF1EE6A1AC4ED029A07
:1075700084ED038AF0EE6A0A16F0D8FF924D934C20
:10758000B0EE407AF0EE607A38EEE91AF1EE481A81
:1075900085ED007AC5ED017A39EEA80AF0EE480AC9
:1075A00016F0C4FF8A4B8B481A6802605A68426022
:1075B0001A695B698260C360C5ED030A85ED020A42
:1075C0008549FFF717FD28462146FFF713FD94ED87
:1075D00004AAD4ED02AAD4ED009ADFED776A89EE11
:1075E0008A7ACAEE8A7A39EE0B9AF1EE677A29EE38
:1075F000269AB1EE477AC6ED027AB0EE490A86EDD8
:10760000017A12F0E1FCF0EE408AB0EE490A12F085
:107610007DFCDFED6B1A28EEA19A30EE098A68EE48
:10762000217A37EEC9BA39EE279AB4EE4B9AF1EEC9
:1076300010FA80F1B480684DD5ED047AD5ED051AC5
:107640007BEE277A79EE211A28EE271A68EEA16AD6
:1076500068EEA70A28EE217A31EE661A70EE870AE4
:10766000F4EE410AF1EE10FA80F18E80D5ED027A47
:10767000D5ED031A31EE271A70EEA11A68EE016AF1
:1076800028EEA17A68EE810A68EE217A76EEC76A62
:1076900070EEA70AF4EE660AF1EE10FA6BD6D4ED9E
:1076A000051A95ED006A3AEE0B1A39EE219A61EE51
:1076B000087A69EE285A29EE087A61EE281A77EEE0
:1076C000E57A37EE217A95ED01AAB4EE677AF1EE0C
:1076D00010FA36EE86BA30EE8AAA3FD6D4ED031AF7
:1076E00077EEAA7A37EE217A27EE881A27EE286AF3
:1076F00067EEA80A67EE081A31EE461A70EEA10A84
:10770000F4EE410AF1EE10FA1BD6D4ED011A39EE6F
:10771000811A70EEA11AB0EE4B0AF0EE4A0A16F08A
:1077200005FF12F015FDB7EE007AC7EE007ABDEC4A
:107730000A8BC6ED007A70BDB0EE670A12F0BEFD8E
:107740008CE6B0EE671AF0EE471AF0EE680AB0EE7B
:10775000480A16F08BFDB0EE401AD6E7F0EE491A53
:10776000F0EE680AB0EE480A16F080FDF0EE407ABE
:10777000B0EE607AB2E7F0EE680AB0EE480A16F0B2
:1077800075FDF0EE406A8AE7B0EE671AF0EE680A1F
:10779000B0EE480A16F06AFDB0EE401A66E7B0EEA9
:1077A000611AF0EE680AB0EE480A16F05FFDB0EE1E
:1077B00040BAB0EE609A3EE7DB0F4940DB0FC940AC
:1077C00000000000980F0020C00F0020800F002054
:1077D0002C090200D00F0020A80F0020F0EE681A3C
:1077E000F0EE6B0AB0EE4C0A16F040FDF0EE409A57
:1077F000B0EE608AB2E601EE900AB0EE691AF0EEE1
:107800006B0AB0EE4C0A16F031FDB0EE40AAF0EE75
:1078100060AA86E616F02AFDF0EE407AF0EE608A65
:1078200042E600BF00230360C360436003618360DE
:107830004361704791ED007AD1ED017A90ED016AD4
:10784000D0ED046A80ED006A20EE077A66EEA77A32
:1078500036EE070A80ED017A37EE800AC0ED036A42
:1078600080ED040A704700BF91ED007AD1ED017AF6
:10787000D0ED015A90ED046AD0ED056A836820EEE0
:10788000077A66EE277A91ED020AC0ED005A37EECC
:10789000655A26EE800A77EE857A436037EE800AD5
:1078A00080ED027A80ED036AC0ED046A80ED050A7E
:1078B000704700BF38B56E4BD3F808C0DA68D3F80C
:1078C00000E05B68C1F800E04B60C1F808C0CA6026
:1078D000C1F810C04A612DED0A8B90ED01AA90ED20
:1078E000008ADFED649AF1EE48AA6AEE698A28EE12
:1078F000698A0C4638EE680A38EE889A0546B4EE76
:10790000490AF1EE10FAF1EE4ABA6BD630EE29BA16
:1079100039EE299A81ED04BA81ED059A7AEEE88A6A
:1079200038EE4A8AB7EE001A70EE019AB4EE688A11
:10793000F1EE10FAC4ED029A84ED039A80F18A8088
:1079400084ED018AC4ED008A95ED02AAD5ED03AA63
:107950006AEE49BA2AEEC9CA2AEE4B7A6AEECB7AA7
:1079600037EE4C7A77EEAB7AB1EE4AAAF4EE477A6C
:10797000F1EE10FAF1EE6AAA5DD629EE8A0A69EEF6
:10798000AA0A30EE4C0A70EEAB0A39EE877A77EE2F
:10799000897AB4EE600AF1EE10FA84ED047AC4ED4F
:1079A000057A3DD628EE8A6A28EE2A5A68EE0A6AD7
:1079B00068EEAA5A38EE807A78EE207A36EE450ADA
:1079C00076EEA50A84ED027AB4EE600AF1EE10FAC2
:1079D000C4ED037A19D6BDEC0A8B84ED000AC4ED20
:1079E000010A38BDF0EE691AB0EE691AF0EE6B0AC2
:1079F000B0EE6A0A16F03AFC30EEA99A30EE29BAD7
:107A000084ED059A84ED04BA88E7F0EE481AB0EEEA
:107A1000681AF0EE6A0AB0EE4A0A16F027FCDAE7B6
:107A2000F0EE491AB0EE691AF0EE6A0AB0EE4A0AB0
:107A300016F01CFCB6E7F0EE491AB0EE4B1AF0EE69
:107A40006A0AB0EE4A0A16F011FCB0EE407AF0EE87
:107A5000607A92E7DFED071AF0EE6B0AB0EE6A0A81
:107A600016F004FCF0EE408AB0EE608A68E700BFD2
:107A70004409020000000000284BDFED291A5A6873
:107A80004A6010B5D3F800C09A68DB68C1F800C03E
:107A90008A60CB602DED068B90ED019A90ED008A07
:107AA00069EE618AF1EE489A28EE618A0C4638EE5A
:107AB000680A78EE880AB1EE49AAF4EE400AF1EEBF
:107AC00010FA1BD6DFED161AB7EE001A30EE017A67
:107AD00070EEA17A39EEE80A78EE490A84ED027A6E
:107AE000F4EE400AF1EE10FAC4ED037A0FD6BDECC5
:107AF000068B84ED000AC4ED010A10BDB0EE611AD8
:107B0000F0EE4A0AB0EE690A16F0B0FBDAE7F0EEE2
:107B10004A0AB0EE690A16F0A9FBE8E74409020038
:107B20000000000070B507EE900A2DED0C8BB8EE4A
:107B3000679A07EE902AF8EE677ADFEDD19AD14A7C
:107B4000C7EE898A82B00C460193117028EEA90A0B
:107B500012F074FA012C80EE298A00F0AB81DDED81
:107B6000017A9FEDD2AAF8EE677A28EE0A8AC7EE6C
:107B700089AA2AEEA90A12F061FA80EE299A29EE62
:107B80000A9A68EE097AF5EE407AF1EE10FA00F101
:107B90006382B1EEE70A39EE488AF6EE007A28EE03
:107BA000278ADFEDC30A68EE20BAB1EE48CAB0EE0C
:107BB0004C1AF0EE6B1A16F0B9FC60EE007A20EE6B
:107BC000A07A20EE809A77EEC77A39EE099AB0EE65
:107BD000401AB4EE679AF1EE10FAF0EE601A80F1F6
:107BE0003482F7EE009A79EEE77A17EE900A15F0F4
:107BF00055FFF1EE497A02460B4617EE900A43EC28
:107C00001D2B15F04BFFB0EE4D0AF0EE6D0A41EC66
:107C1000110B11F069FF51EC100B55EC114B16F0E4
:107C20006DFA2946034620460CEE903A16F066FAA5
:107C30007CEEA99A09EE100A2CEE29AA2BEE897A7D
:107C40002CEE09BA6BEEA97A3AEE47AA3BEE27BAB8
:107C5000B4EE4ABAF1EE10FA80F1E881B7EE000A0C
:107C600030EE6C0A29EE6B7A29EE088A6CEE009AE7
:107C70006BEE807A79EEC79A38EE278A824CF4EE62
:107C8000489AF1EE10FA84ED00AA84ED01BAB1EE43
:107C9000499A80F1BE81B0EE009A39EE4A1A3AEE66
:107CA000090AF1EE4B1AC4ED029A84ED038AF0EE54
:107CB0004B0A16F03BFC754D754CB0EE407AF0EE79
:107CC000607A39EE691AF1EE481A85ED007AC5ED51
:107CD000017A39EE890AF0EE480A16F027FC6D4B5E
:107CE0006D481A68596802601A695B69C5ED030A34
:107CF0008260C36085ED020A41606849FFF7DAFDE2
:107D000021462846FFF7D6FD94ED049AD4ED009A5B
:107D100094ED02AADFED5A6A614A624B89EE897AD4
:107D2000CAEE097A78EEAA8AF1EE677A68EEA68A38
:107D3000B1EE477AB0EE680AC3ED007A82ED007AC0
:107D400012F042F9B0EE40BAB0EE680A12F0DEF876
:107D5000DFED571A2BEE218A70EE08AA6AEEA17A9F
:107D600077EEC88A38EE278AB4EE688AF1EE10FA08
:107D700080F14281494DD5ED047AD5ED051A78EEB2
:107D8000A77A78EE211A2AEEA71A6BEE216A6BEE1B
:107D9000270A2AEEA17A31EE661A70EE870AF4EE0F
:107DA000410AF1EE10FA80F11C81D5ED027AD5ED91
:107DB000031A31EE271A70EEA11A2AEE817A6BEEC1
:107DC000216A6BEE010A6AEEA17A37EE667A70EEEE
:107DD000A70AF4EE470AF1EE10FA80F1F980D4ED2B
:107DE000051AD5ED006A39EE289A38EE218A2AEE76
:107DF000891A2BEE086A6AEE887A6BEE091A31EE60
:107E0000461A77EEA17AD5ED018AB4EE671AF1EE43
:107E100010FA77EE26BA70EEA88A80F1CA80D4ED07
:107E2000031A3AEE01AA77EEA17A2AEE8A1A6BEECD
:107E3000276A6BEE0A0A6AEEA71A31EE661A70EE2E
:107E4000A10AF4EE410AF1EE10FA80F1A580D4ED1A
:107E5000011A39EE811A70EEA11AB0EE6B0AF0EE3B
:107E6000680A16F063FB12F073F9B7EE007AC7EEFA
:107E7000007A0D4BC3ED007A02B0BDEC0C8B70BDE7
:107E8000DB0F4940FC0F0020102000205020002074
:107E9000E40F002044090200602000202020002080
:107EA000402000204420002000100020DB0FC940AB
:107EB000000000001FED030A5FED038A744BDFED45
:107EC000750A754DC3ED010A28EE008AB0EE000A6E
:107ED000F1EE487A38EE001AC3ED007AF0EE681A37
:107EE00030EE480A16F022FB6C4B6D481A686D4E56
:107EF0005B686D4C43600260294686ED000AC6ED62
:107F0000010AFFF7B9FD30462146FFF7B5FD94EDB4
:107F1000009A94ED028AD5ED030A95ED020A634BAF
:107F2000C9EE086A70EEA80AB0EE407A10EEE87A60
:107F300060EE287AF1EE666A77EEE07AC3ED006AC9
:107F4000F4EE477AF1EE10FA80F18B80DFED581AEB
:107F5000D4ED030AD5ED005A95ED016A70EEA10A41
:107F6000B0EE481A10EEE11A68EE216A77EE258A23
:107F700076EEE06A77EE869AF4EE416AF1EE10FA58
:107F80007AD6D4ED011A39EE011A76EEA11AF0EE86
:107F9000690AB0EE680A64E7B0EE4A1AF0EE671AB2
:107FA000F0EE4B0AB0EE6A0A16F060F9B0EE401A35
:107FB0004DE7B0EE491AF0EE481AF0EE4B0AB0EE7B
:107FC0006A0A16F053F9B0EE401AF0EE607A26E72E
:107FD000F0EE4B0AB0EE6A0A16F048F9B0EE407ABD
:107FE000FDE6B0EE671AF0EE4B0AB0EE6A0A16F044
:107FF0003DF9B0EE401AD8E6B0EE611AF0EE4B0A49
:10800000B0EE6A0A16F032F9F0EE408AB0EE608AFD
:10801000B0E6F0EE6B1AB0EE4C1AF0EE490A16F02C
:1080200025F9F0EE409AB0EE608A34E600EE900A50
:10803000F0EE6B1AB0EE4C1AB0EE690A16F016F9B3
:10804000B0EE40AAB0EE60BA08E616F00FF9F0EE16
:10805000407AB0EE609AC4E5B0EE670A12F02EF9ED
:1080600099E5F0EE681ABFEE001A16F0FFF8B0EED0
:10807000407AF0EE607A69E7BFEE001AB0EE480A87
:1080800016F0F4F8B0EE401AF0EE606A79E700BF3F
:108090001020002000000080202000204409020061
:1080A0006020002050200020E40F0020402000200D
:1080B00000000000034BD3ED007A27EE800A83ED29
:1080C000000A7047001000202DE9F04F2DED028BC3
:1080D00089B0012A8446019140F06881A24AD2ED1C
:1080E000004AA24AF5EEC04AF1EE10FA127840F3C7
:1080F0009D80012A9E4A1268B3FBF2F100F08C8247
:1081000093420591C0F05B8313090493994B02934A
:1081100093ED002A984B069393ED004A974BDFEDC1
:10812000988A93ED008A974B0393D3ED002A964BE0
:108130000793D3ED007A954BDFED951A93ED000A86
:10814000944BDFED953AD3ED000A944B944993EDAF
:10815000001A002322F00F0918469B469A46049AFB
:10816000002A00F0D181019B8E4E0BF10044013CAE
:108170000CEB4402B0EE683AB0EE686A03EB4404DC
:1081800000251FE0FDEEE76AB0EE677ACDED006AEC
:10819000BDF90030F7EC016A2EF8023F21EE066AC5
:1081A00026EE877A904537EE067A37EE456A40F03C
:1081B0009E811035A94506F1400604F1200400F027
:1081C000A7804246B0EE627AF0EE426AB0EE435AC1
:1081D000F0EE672AB0EE442AB0EE463AA64637469D
:1081E00002F1200832F9023F60EE075A07EE103A1A
:1081F000B8EEC77A60EEA77A27EE084A47F6FF7313
:1082000074EE666AB0EE617A76EEA56A76EEA77ACB
:10821000F4EEE17AF1EE10FABCDCF4EEE37AF1EE82
:1082200010FAAFD5B0EE637A0B46B3E7012A00F03F
:1082300072811B0900F0C1821E015B4B4D4A1B88F5
:108240004D49D2ED005A029203EE903A4B4B019AFF
:1082500093ED002A4B4B039393ED005A4A4B07933F
:10826000D3ED007A494BD1ED006AD3ED002A494B9A
:108270009FED476ADFED481A93ED003A484C0691AE
:1082800000F11E0CF8EEE33A0020951E0746B0EE12
:10829000657AACF12003294614E0FDEEE74AB0EE22
:1082A000E77ACDED004ABDF9002021F8022FF4EE67
:1082B000473AF1EE10FA98BF01209C45B0EE657A7E
:1082C00000F0838133F9022FF0EE665A06EE902A11
:1082D000F8EEE66A22EE854A66EE826A63EE274A87
:1082E00036EEC77AB0EE675A77EE047A47F6FF7239
:1082F00074EEA77AB0EE467AF4EEC67AF1EE10FA92
:10830000D3DCF4EEE17AF1EE10FAC6D52246CCE7E2
:1083100026EE067A63EE036ACB4477EE266A0123E3
:1083200021EE067A059A27EE037A0AF1010A36EE63
:10833000C77AF4EE474AF1EE10FA48BF01209245A1
:10834000FFF40DAF5BB1029B83ED002A039BC3EDED
:10835000002A069B83ED004A079BC3ED007A09B013
:10836000BDEC028BBDE8F08F08100020FC0F002050
:108370000C100020382000203C200020001000209D
:1083800000000000482000204C2000204020002059
:1083900000FEFF464420002000FEFFC6041000201F
:1083A0000180FFFF10100020E00F0020002B00F0E4
:1083B0000482B549069191ED004A0199DFEDB35A67
:1083C0009FEDB32ADFF8F8E2DFF8E8928D1EB1499D
:1083D000098804EE901AB04991ED003AAF4907912F
:1083E00091ED005AAE49D1ED003AAE49D1ED002AE7
:1083F000AD490291D1ED006AAC4903914FF00008FC
:10840000C2EBC276F8EEE44A91ED006A00EB420C52
:1084100076005700404644469FEDA57A06EB0C01D6
:108420004AB131F902AB07EE90AAF8EEE77A8C4533
:1084300037EE277AF5D19EF8001023EE077A01294E
:1084400026EE236A77EE667A3CD137EE866AF0EE46
:10845000476AF0EE467AF4EEE57AF1EE10FA2CDC9B
:10846000F4EEC27AF1EE10FA3DD4BDEEE77AF0EE0A
:10847000E77A17EE101A09B2F4EE674AF1EE10FA35
:10848000144498BF0120A34225F8021FBC44C3D85E
:10849000029BC3ED006A039B83ED006AB8F1000FF5
:1084A0003FF45DAF069B83ED004A079B83ED005AC6
:1084B00009B0BDEC028BBDE8F08FF0EE657A47F6AF
:1084C000FF71D9E765EE226A77EE867A4FF00108F0
:1084D00077EEA67AB0EE456AF0EE446AB0EE675ADF
:1084E000B0EE474AB7E7F0EE657A4946C4E7B0EE2A
:1084F000627AF0EE426AB0EE435AF0EE672AB0EECE
:10850000442AB0EE463A6DE6F0EE686AB0EE683A9C
:10851000B0EE686A04E71B0900F04F81624A0292DC
:108520001C015C4BDFED595A1B88DFED593A614D58
:108530001146594AD1ED007A92ED004A5B4A039206
:1085400005EE103A564B92ED007A019AD3ED004AAF
:1085500000F11E0CB8EEC55A0020971E0646ACF17D
:108560002003394611E0FDEEC76AB0EEC76ACDEDD3
:10857000006ABDF9002021F8022FB4EE465AF1EE50
:1085800010FA98BF0120634538D033F9022FF0EE7E
:10859000676A07EE902AF8EEE77A27EE247A67EE0C
:1085A000847AB0EE656A77EEE66A47F6FF7236EED9
:1085B000877AB4EEE57AF1EE10FADCDCB4EEE37A19
:1085C000F1EE10FACFD52A46D5E71037BE420CF1AE
:1085D000200C05F120057FF45AAE029BC3ED005A32
:1085E000039B83ED005A069BC3ED006A079BC3ED16
:1085F000007A09B0BDEC028BBDE8F08F1036A642C0
:1086000003F1200C07F12007A9D1029BC3ED007AEA
:10861000039B83ED007AA2E693420491C0F0CF80E1
:1086200013090593204B0293D3ED005A1A4B9FED8B
:10863000201AD3ED001A1D4B0393D3ED007A184B8B
:10864000DFED123A93ED002A1B4B9FED117AD3ED2B
:10865000002A1849002322F00F099A469B469846A3
:10866000059A002A00F0A280019B14480AF10046F6
:10867000013E0CEB4602B0EE414AF0EE416A03EBDC
:10868000460600273BE000BF3C20002000FEFF46DE
:1086900000FEFFC6E00F0020001000204C2000204C
:1086A00040200020442000203820002048200020C6
:1086B000000000000180FFFF0410002010100020C7
:1086C000FC0F0020BDEEE75AB0EE676A8DED005A50
:1086D000BDF90030B4EC015A25F8023F62EEA66AFB
:1086E00025EE066A724576EE866A76EEC36A30D16A
:1086F00010374F4500F1400006F1200630D0B0EEB3
:10870000443AB0EE655AB0EE664A3546044602F188
:10871000200E32F9023F05EE903AF8EEE55A62EE8D
:10872000277A65EEA15AB0EE636A35EEC55A47F670
:10873000FF7377EE857AF4EEE37AF1EE10FAC9DC96
:10874000F4EEC77AF1EE10FABCD5B0EE476A0B46EC
:10875000C0E7B0EE443AB0EE655AB0EE664AD8E7EC
:1087600026EEA66A24EE045ACA4436EE056A0123B0
:1087700062EEA66A049A66EE846A0BF1010B76EE4D
:10878000666AF4EE664AF1EE10FA48BF4FF001084F
:108790009345FFF465AF4046002B3FF4E0AD029BEC
:1087A000C3ED005A039BC3ED007AD8E5B0EE416AF1
:1087B000B0EE414AF0EE416ADAE71846CFE5002014
:1087C000CDE500BFA44BF0B51C68B1FBF4F68C42BC
:1087D00000F23781A14AA24BD2ED007AD3ED004AD4
:1087E0009FEDA05A4FF0000E2509F44624F00F0427
:1087F000002D00F0288100EB4C039B4AA444F0EECE
:10880000456AB0EE457A00EB4C01B3F9007092ED89
:10881000006AD2ED013A05EE907AF8EEE55AB3F926
:10882000027027EE274A65EE865A06EE107A75EE3C
:10883000845AB8EEC66A75EEE66AB3F9047027EE9C
:10884000A64A26EE236A05EE907A36EE046AD2ED49
:10885000023AB3F9067036EE477AF8EEE55A27EE9B
:10886000874A65EEA35A06EE107A75EE845AD2ED69
:10887000033AB3F9087075EEE65AB8EEC66A27EE09
:10888000A54A26EE236A06EE907A36EE046AD2ED09
:10889000043AB3F90A7036EE476AF8EEE66A27EE54
:1088A000864A66EEA36A07EE107A76EE846AD2ED07
:1088B000053AB3F90C7076EEE55AB8EEC77A27EEB2
:1088C000A54A27EE237A06EE907A37EE047AD2EDA7
:1088D000063AB3F90E7037EE466AF8EEE66A27EE0E
:1088E000864A66EEA36A07EE107A76EE846AD2EDC7
:1088F000073AB3F9107076EEE56AB8EEC77A27EE5C
:10890000A64A27EE237A05EE907A37EE047AD2ED66
:10891000083AB3F9127037EE467AF8EEE55A27EEC8
:10892000874A65EEA35A06EE107A75EE845AD2EDA8
:10893000093AB3F9147075EEE66AB8EEC66A27EE26
:10894000A64A26EE236A05EE907A36EE046AD2ED48
:108950000A3AB3F9167036EE477AF8EEE55A27EE82
:10896000874A65EEA35A06EE107A75EE845AD2ED68
:108970000B3AB3F9187075EEE65AB8EEC66A27EEF0
:10898000A54A26EE236A06EE907A36EE046AD2ED08
:108990000C3AB3F91A7036EE476AF8EEE66A27EE3B
:1089A000864A66EEA36A07EE107A76EE846AD2ED06
:1089B0000D3AB3F91C7076EEE55AB8EEC77A27EE99
:1089C000A54A27EE237A06EE907A37EE047AD2EDA6
:1089D0000E3AB3F91E7037EE466AF8EEE66A27EEF5
:1089E000864A66EEA36A07EE107A76EE846AB8EEDF
:1089F000C77A92ED0F4A76EEE56A27EE047A67EEC3
:108A0000A65A203337EE257A994237EE467A02F19C
:108A100040027FF4FAAE27EE076A66EEA65A36EEFB
:108A2000256A27EE277A27EE267A36EE477AF4EE85
:108A3000C74AF1EE10FA0DD40EF1010E76453FF65D
:108A4000D7AE0020F0BDB0EE456AF0EE456AB0EE5C
:108A5000457AE6E70120F0BD0C100020041000204C
:108A600008100020000000001010002042088A4278
:108A700028BF0A4600230121FFF754B84FEA500CE3
:108A8000614528BF61469445634628BF1346994215
:108A90000BD30B4A0B490C4BDFF830C0C2F800C0B7
:108AA0000020012208601A707047944503D90A46D5
:108AB0000021FFF737B80A4600230121FFF732B83B
:108AC0004020002000100020FC0F0020000080BF8C
:108AD000014B1880704700BFE00F0020F8B52F4B06
:108AE0002F4F2DED088B9FED2F8A18600AEE101A7C
:108AF00009EE902AF0EE40AA30B3431E08EE903AF9
:108B0000294DDFED2ABA9FED2ABA9FED2A9AF8EE99
:108B1000688A0646002407EE904AF8EEE77A0134A8
:108B200067EEAB7A87EEA80A11F0F0F9A64260EE84
:108B30000B7A79EE677A38EE278AE5EC017AEAD18A
:108B4000DFED1D7A28EE278ADFED1C7AF4EEE7AA26
:108B5000F1EE10FA1FDA28EE088A28EE2A8A88EE4B
:108B6000277A67EE2AAA8AEEA77ADFED107A87EDD8
:108B7000007AF8EE699AB8EE4A0A69EEA79A89EE89
:108B8000800A11F0C3F9BDEC088B0D4B30EE000AE2
:108B900083ED000AF8BD9FED0B7AE6E70C1000208C
:108BA000081000200000000010100020DB0FC9405A
:108BB0001F85EB3E713D0A3F00FE7F460000C84224
:108BC00004100020FFFF7F7F38BBF0B54C4D2878A4
:108BD000830783B001D503B0F0BD0FF0F9F80FF0B3
:108BE000BDFA0A24FF200FF0A3F8611E11F0FF0464
:108BF000F8D1214620460FF009FA012806460ED08A
:108C0000404B00221A600FF0A1F80FF0E7F8287827
:108C100040F00100287003B0F0BD012070474FF410
:108C20007A700FF0CBFA4FF4D57108200FF0EEF9FF
:108C300001283AD101AF02AE3C46FF200FF078F890
:108C400004F8010BA642F8D19DF80630012BD7D1CC
:108C50009DF80730AA2BD3D102E00FF0D7F938B135
:108C60000FF0B8FA03464FF08041A920002BF4D052
:108C70000FF0B0FA01460028C2D13A200FF0C6F931
:108C80000028BDD1FF200FF053F807F8010BB742C1
:108C9000F8D19DF8043013F0400F1A4B14BF0C228A
:108CA00004221A600FF052F821E02146A9200FF0AB
:108CB000ADF9022836BF02240124A92602E00FF0F4
:108CC000A5F928B10FF086FA014630460029F6D002
:108CD0000FF080FA002893D14FF4007110200FF0AC
:108CE00095F900288CD1074B1C600FF02FF82B78DA
:108CF00023F001032B700FF041FA287803B0F0BD88
:108D0000500000207020002010B9024B18787047E6
:108D1000012070475000002038B550BB1C4643B3BB
:108D20001E4B1B78D80727D41D4B1B681B0758BF49
:108D30005202012C0D46114621D012200FF066F987
:108D400038B101240FF002F8204638BD14F0FF04BA
:108D50000AD028464FF400710FF080F8013C05F569
:108D600000750028F2D1012400210C200FF04EF9EB
:108D7000E8E70424204638BD0324204638BD1120EE
:108D80000FF044F90028DDD14FF4007128460FF0B0
:108D900065F8B0FA80F46409D4E700BF5000002001
:108DA0007020002030B583B0002834D11C46002B41
:108DB00031D0294B1B78DD0731D4580733D4274BEA
:108DC0001B680D46190758BF5202012C36D013F00C
:108DD000060F2CD1114619200FF018F940B10124CB
:108DE0000EF0B4FF204603B030BD13F0FF0408D0EE
:108DF0002846FC210FF092F805F50075631E002847
:108E0000F3D1FD2100200FF089F80028E7D0003CC5
:108E100018BF0124E4E70424204603B030BD032436
:108E2000204603B030BD0224204603B030BD2146A9
:108E3000972001920FF0EAF8019ACBE7114618202B
:108E40000FF0E4F80028CAD1FE2128460FF066F89A
:108E5000B0FA80F46409C3E75000002070200020BD
:108E600070B586B090B9824B187810F0010440F0CC
:108E7000B98015460E290DD8DFE801F0121B4E52BD
:108E80000C0C0C0C750C787C8A91A20004242046F2
:108E900006B070BD04240EF059FF204606B070BD28
:108EA00001910EF065FF0199002840F0C180012476
:108EB000F1E7002109200FF0A9F804460028F6D1B7
:108EC000102102A80EF0CAFF0028F0D09DF808304B
:108ED0009B09012B00F0B2809DF80F309DF80E1019
:108EE0009DF810009DF80D209B00890203EB901364
:108EF00001F440610B449DF811109DF8120002F03E
:108F00000F02490001F0060102EBD0120A440133BE
:108F1000073A93402B60BEE74FF400732B80BAE70B
:108F2000544E316811F0040160D000218D200FF003
:108F30006DF80028BBD1FF200EF0FAFE102102A828
:108F40000EF08CFF0028B2D03024FF200EF0F0FE8F
:108F5000601E10F0FF04F8D19DF8122010231209B2
:108F600093402B6097E701221A7094E7414B1B68EE
:108F70002B7090E7002109200FF048F8002896D1C7
:108F8000102128460EF06AFFB0FA80F4640982E7E7
:108F900000210A200FF03AF8002888D1F0E70021DC
:108FA0003A200FF033F80446002880D16E1E0335B6
:108FB000FF200EF0BDFE06F8010FAE42F8D16AE7C1
:108FC00000218D200FF022F800287FF470AFFF20E1
:108FD0000EF0AEFE402128460EF0A0FFB0FA80F45D
:108FE000640958E70324204606B070BD09200FF03D
:108FF0000DF8044600287FF45AAF102102A80EF0A5
:109000002DFF00283FF453AF33689B0720D59DF810
:1090100012309DF813109DF815205B0003F07E03BD
:1090200003EBD11392090133013A93402B6032E7ED
:1090300001910EF08BFE01990C462CE79DF8102053
:109040009DF8113003EB022301339B022B6022E7D2
:109050009DF813109DF81230CA0002F01802C3F3F5
:10906000840302EB5112013302FB03332B6012E73E
:109070005000002070200020036823F001030360EB
:10908000704700BF036843F001030360704700BFEF
:10909000436842EA011123F0F70319434160704726
:1090A00000F1424202F58012520110B44B7A91F85D
:1090B00000C0002414600C7A1B0443EA44434C684B
:1090C00043EA04638C7A43EA0423CC7A43EA041328
:1090D0000C7B43EA84034C78A40744EACC74234312
:1090E0000C6991F80DC0097D0360240244EA0C4428
:1090F00044605DF8044B1160704700BF70B50C7997
:1091000005460E46164824BB00F018FC154B164CBD
:109110001844A4FB0024E40D984288BF04F1FF34F6
:10912000E4B20A236B607378327871791B0143EAE9
:109130000263B2781343F2781204240202F4FE02AE
:10914000134304F4FE44234309B143F008032B60A6
:1091500070BD00F0F3FB024800F0F0FBE1E700BF58
:10916000408104003F5DC600A5E830A5384B0222CF
:109170004260984210B5426B91F802C01ED04B7805
:109180000A781B0543EA02730A7943EA0223CA7884
:1091900043EA02138A790AB143F08073CA790AB1AB
:1091A00043F004034A790AB143F002030A7A0AB190
:1091B00043F0010343EA0C43C36010BD22F4FE42B6
:1091C00022F07F02BCF1060F0BD8DFE80CF0342749
:1091D0001B0D0A0A04001F4BD3F8BC3103F07F03B8
:1091E0001A431B4B5A63CAE71A4CD4F8B831D4F867
:1091F000B8411B0C03F4FE43C4F3064E43EA0E03CE
:109200001A43EEE7134CD4F8B831D4F8B84103F45C
:10921000FE4304F07F0423431A43E2E70D4CD4F8E5
:10922000B431D4F8B4411B0C03F4FE43C4F3064438
:1092300023431A43D5E7074CD4F8B431D4F8B441EA
:1092400003F4FE4304F07F0423431A43C9E700BF3D
:10925000002000400080E00FB0F5FA4F10B50B4C35
:1092600038BF4FF4FA40844228BF044649B1601E1B
:109270000144A142B1FBF4F028BF00F1FF30C0B2BD
:1092800010BD034800F05AFB0146F0E7405DC60000
:109290004081040000230A214FF4F8124160C360AA
:1092A00003610260194A436110B440F2477140F211
:1092B000033404629042C163436B03D0436B5DF897
:1092C000044B7047124923F4FE42D1F8B431D1F86F
:1092D000B44103F4FE4304F07F04234322F07F02F1
:1092E00013434363436BD1F8B421D1F8B4115DF853
:1092F000044B02F4FE4201F07F0123F0FE430A43D7
:1093000023F4FE0343EA0243436370470020004016
:109310000080E00F08B570B10A4A0B4B904228BF9D
:10932000104600F5742000F23F20A3FB0030800CB3
:109330000138C0B208BD054800F000FB0028EBD1A1
:1093400008BD00BF0048E80183DE1B4340810400E4
:10935000836810B40478B3FA83F3C3F11F0C1CB113
:10936000194B0122C3F8002718498B6BDA0706D482
:109370000B6813F4405F02D0CA6BD307FCD4134AC6
:10938000837C5360C168838843EA4113417841F08C
:1093900008010B43817843EA8103417C43EA0113CE
:1093A000017C43EA813343EA0C234FF0FF31116320
:1093B00013602CB1044B12680021D960C3F8001768
:1093C0005DF8044B704700BF0000024300100840E6
:1093D000064A936BD80706D4136813F4405F02D093
:1093E000D36B9B07FCD4014BD96070470010084039
:1093F00008B500F00F03013B062B07D8DFE803F0A8
:10940000245C780606043800494B1B68494B984297
:109410000FD0494B98420AD1454B9B6AC3F3810355
:10942000013B022B7FD8DFE803F0361F400000200D
:1094300008BD3F4B9B6A03F00303013B022B69D835
:10944000DFE803F029123300394BDB6A03F4705371
:10945000B3F5805F23D0B3F5005FD7D1354B984289
:10946000E7D0354B9842D7D0BDE8084010F036BB66
:109470002F4BDB6A03F46033B3F5803FEED0B3F5D6
:10948000003F0CD0B3F5004FC0D02A4B9842D0D04B
:10949000294B9842C0D0BDE8084010F017BB254BBF
:1094A0009842C6D0244B9842B6D010F023FA234BF2
:1094B0009B6F0133D84008BD1D4A936A03F0030334
:1094C000013B022B22D81B4A1D499042C95CB0D0F7
:1094D000194B9842A0D001390229A8D801A353F80A
:1094E00021F000BF9794000069940000AB94000045
:1094F0000F4A936A03F00C03082BAFD00C2B85D0D6
:10950000042BCCD0936ADB02BFD57FE7936ADA03E2
:10951000BBD57BE7064A906A1023D84088D0BDE8C7
:10952000084010F0D7BA024A1423906AF5E700BF4A
:1095300000800C4002001A0003001C000000904351
:109540005C09020070B5C0F303156B1E0C46062BB8
:109550000FD8DFE803F02A0E0E043F520F00A34B92
:109560009A68B1FA81F1C1F11F0422F00F01214381
:10957000996070BD9E4B984200F0F98003F504336A
:109580009842F6D1994A536DD90702D4136D5B0600
:10959000FCD496490A6FB4FA84F3C3F11F0322F096
:1095A000300242EA03130B6770BD10F013FA914BBF
:1095B00041F67132DE6BDA635A6812F0060F04F17D
:1095C000FF3102F0070337D18B4B984240F2E58020
:1095D00004203EE010F0FEF9864B41F67132DE6B5E
:1095E000DA635B6813F0060F03F00702824B65D164
:1095F000984240F2DA8004226BE0804B984200F0FF
:10960000228103F5AF13984200F00B817C4B984206
:10961000AFD1764A536DDE0702D4136D5D07FCD4DB
:10962000724A936EB4FA84F1C1F11F0123F0F00382
:1096300043EA0113936670BD042BC5D06E4B98426C
:1096400000F2A9806F4A704B02449A422CBF02205C
:109650000320684D6A6822F0070202436A600EB177
:109660000023EB636148026822F4E03242EA813170
:10967000016010F03FF95F4B41F67132DC6BDA6349
:109680005B6813F0060F03F007025B4B40F0A1800C
:10969000984200F2C4805B4B5B4A034493422CBF68
:1096A0000022012253494B6823F0070313434B6008
:1096B000002C3FF45EAF0023CB6370BD042A97D02B
:1096C000984266D84F4B504A034493422CBF022223
:1096D000032248494B6823F0070313434B600EB144
:1096E0000023CB6310F07AF9484BB0FBF4F09842BA
:1096F00040F29280464B0122984294BF4FF4807012
:109700004FF40070434B394E9A67726822F48072AE
:1097100010437060B4FA84F1C1F11F04716821F044
:109720000F012143716010F0E5F8324B41F67132C0
:10973000D96BDA635B6813F0060F03F007022E4B58
:109740003BD1984200F292802E4D2F4B05449D4212
:109750002CBF00250125274A536823F007031D432A
:10976000556000293FF405AF0023D36370BD1F4A45
:10977000536DDD0702D4136D5806FCD41B4A136FDA
:10978000B4FA84F1C1F11F0123F003030B43136703
:1097900070BD2A469DE705205BE71A4A1A4B024432
:1097A0009A422CBF0020012053E7164B164A03446F
:1097B00093422CBF002201228BE7042AC1D0984299
:1097C000C9D8104D104B05449D422CBF02250325DE
:1097D000C1E7042A3FF45CAF984249D8094B0A4AD2
:1097E000034493422CBF022203225BE700800C401B
:1097F0007007160000000C400048E80160261400C5
:1098000060161000FFDB0BFF0024F40000366E0131
:10981000006CDC02000090430020024672E7042244
:1098200040E7144A536DDB0702D4136D5E07FCD486
:10983000104A936EB4FA84F1C1F11F0123F00303BF
:109840000B43936670BD0B4A536DD80702D4136D5A
:109850005907FCD4074A936EB4FA84F1C1F11F0191
:1098600023F4706343EA0123936670BD042572E715
:10987000052217E700800C4038B5C0F30323013BF5
:1098800004460D46092B0CD8DFE803F00C10140B2E
:109890000B2D3B0B0B051F4AC0F304341444A400EA
:1098A000256038BD1C4AC0F30434F7E71B4AC0F3F7
:1098B0000434F3E710F01EF8194B984227D9194BDE
:1098C0000122984294BF4FF480704FF40070164B01
:1098D00016499A674B68164A23F480731843C4F3F9
:1098E00004344860DAE7134AC0F304344FF0010C43
:1098F0000E48436DDB07D1D4036D13EA0C0FFBD187
:10990000CCE70D4AC0F304344FF0100CF0E7002010
:109910000246DCE7C003E4104000E4102002E4103B
:1099200000366E01006CDC020000904300800C40A9
:109930000002E410C002E4100003E41000F4781008
:10994000B0F5A01F08B550D01DD9B0F5E01F55D017
:109950000ED9B0F5081F56D0B0F5281F60D1664863
:10996000FFF746FD654B9B6E03F00303D84008BD2F
:10997000B0F5C01F56D0B0F5D01F17D1BDE80840D4
:109980005D48FFF735BDB0F5402F54D01AD9B0F57A
:10999000602F67D0B0F5801F42D15748FFF728FDF0
:1099A000564B9B6EC3F30313D84008BDB0F5B01FF0
:1099B00036D15348FFF71CFD504B1B6F03F00303D8
:1099C000D84008BDB0F5003F72D0B0F5802F07D168
:1099D00010F004F8494B9B6803F00F03D84008BD12
:1099E000F0B9BDE808400FF0F9BF4348FFF700FDAC
:1099F000424B9B6EC3F30323D84008BDBDE808402B
:109A00003F48FFF7F5BC3D4BDB6A03F46033B3F529
:109A1000803F62D0B3F5003F50D0B3F5004FE0D0A7
:109A2000002008BD3648FFF7E3FC344B1B6FC3F33F
:109A30000113D84008BD314B186810F08050D0D1C8
:109A40005B6903F4E063B3F5407F4AD03CD8B3F5DB
:109A5000807F37D0B3F5007F12D02A4A002B08BF91
:109A6000104608BD254B5B6903F4E063B3F5407F06
:109A700037D00FD8B3F5807F24D0B3F5007F12D153
:109A8000214B2248D3F8FC20214BB2F1985F28BF2C
:109A9000184608BDB3F5C06F0ED0B3F5E06F1D4892
:109AA00018BF002008BD002B164818BF002008BDB5
:109AB000BDE808400FF01EBF174808BDBDE80840CC
:109AC00010F004B8154808BDB3F5C06FF4D0114AC2
:109AD000B3F5E06F08BF104608BDBDE808400FF0C1
